:020000020000FC
:1020000007EB0093E50000E10093E6000FE000938A
:10201000E70000E80093E40008950F921F920F93E9
:102020001F932F933F93AF93BF93EF93FF93125060
:10203000003209F40CE20A52000F000FE2E8F0E26D
:102040000024E00FF01DACEEBB27212F1695A10F49
:1020500034E000EF20FD0295059020FD02941C90D5
:10206000102210281C9215963A95B1F7FF91EF9126
:10207000BF91AF913F912F911F910F911F900F90A2
:102080000895080A0A0E00080A0200000000000075
:102090000A0001050A0008000004090505050801F9
:1020A000010001010E0101010B0100050B000104FB
:1020B0000B0101040F010101010001050F010105E0
:1020C0000B010002000400000000080000080000EE
:1020D0000A010002000400000000000000000105E9
:1020E0000F000109090301040401010901030104AE
:1020F0000E0101040E0001040D0100050F0000088F
:102100000002000105010804060800040401080794
:102110000500000705080105050101050E00010580
:10212000050901050E080102000901080002000569
:102130000501080404040005050C0802000C08024F
:102140000002090000050104040100020008010169
:1021500001010000000000000001090F0F0FE6E27E
:10216000F0E080E270E260E250E240E230E20591AD
:102170000C94BC100C940001003041F1872F762F95
:10218000652F542F432F302F17E00E940D10042F7E
:1021900016E00E940D10052F15E00E940D10062F6D
:1021A00014E00E940D10072F13E00E940D10082F5D
:1021B00012E00E940D10AFEFBFE0C5E0AA95F1F765
:1021C000BA95E1F7CA95D1F70C94B71090E00C944A
:1021D000E910963079F2872F762F652F542F432FF1
:1021E00030E2032F17E00E940D10042F16E00E942A
:1021F0000D10052F15E00E940D10062F14E00E940F
:102200000D10072F13E00E940D10082F12E00E94FE
:102210000D10AFEFBFE0C5E0AA95F1F7BA95E1F771
:10222000CA95D1F793950C94E91000E011E020E0F5
:1022300031E040E051E01F9901E01E9921E01C9936
:1022400041E06FEFE2E0F2E06A95F1F7EA95E1F73D
:10225000FA95D1F701130C94351123130C943B110B
:1022600045130C9450110C946A11713079F0C130FF
:1022700091F0D13031F0713071F0C13011F0D130C6
:1022800029F071E0C0E0D0E00C946A1170E0C1E088
:10229000D0E00C946A1170E0C0E0D1E00C946A11B7
:1022A00000E212E00E940D1000E213E00E940D1007
:1022B00000E214E00E940D1000E215E00E940D10F3
:1022C00000E216E00E940D1000E217E00E940D10DF
:1022D0000C940501713021F0C130E1F0D130A1F151
:1022E00005E312E00E940D1000E213E00E940D10C1
:1022F0000BE414E00E940D1003E415E00E940D10A1
:1023000000E216E00E940D1000E217E00E940D109E
:102310000C94151101E312E00E940D1000E313E08C
:102320000E940D1000E214E00E940D100BE415E075
:102330000E940D1003E416E00E940D1000E217E069
:102340000E940D100C94151102E312E00E940D1072
:1023500000E313E00E940D1000E214E00E940D1053
:102360000BE415E00E940D1003E416E00E940D102E
:1023700000E217E00E940D100C94151100E212E02B
:102380000E940D1000E213E00E940D1000E214E024
:102390000E940D1000E215E00E940D1000E216E010
:0E23A0000E940D1000E217E00E940D1008953B
:100000000FEF0DBF04E00EBF0E9400100C94AF1064
:10001000314142324333314132444432314142432F
:1000200032314433000056484F445445204D494E28
:040030004349000040
:1002000071E0C0E0D0E00C947011E0E1F0E01DB1CD
:10021000137F0EB10C601DB90EB900E000937F0092
:1002200014B11F7205B1006D14B905B981E050E039
:1002300060E092E3A3E0E0E1F0E058130C942501C4
:1002400068130C942C010C9433010591A02E0030FE
:1002500091F312E00E940D100591B02E003059F379
:1002600014E00E940D100591C02E003021F316E01D
:100270000E940D102FEF3FE045E02A95F1F73A95E7
:10028000E1F74A95D1F700E010E01C9901E02FEF6B
:1002900035E045E02A95F1F73A95E1F74A95D1F72F
:1002A0001C9911E0010749F2503019F451E00C9407
:1002B0002C01603019F461E00C943301AB1411F09F
:1002C0000C946401BC14B1F00CE412E00E940D1017
:1002D0000FE413E00E940D1003E514E00E940D10DE
:1002E00005E415E00E940D1002E516E00E940D10D5
:1002F0000C94BE0107E512E00E940D1009E413E022
:100300000E940D100EE414E00E940D100EE415E0A2
:100310000E940D1005E416E00E940D1002E517E0A2
:100320000E940D102FEF3FE045E02A95F1F73A9536
:10033000E1F74A95D1F70E94BE112FEF3FE045E06B
:100340002A95F1F73A95E1F74A95D1F7AA9511F078
:100350000C947A0107E412E00E940D1002E513E00C
:100360000E940D1001E414E00E940D1004E515E058
:100370000E940D100AE516E00E940D100C94BE01BB
:00000001FF
